{
  "contractName": "DappToken",
  "abi": [
    {
      "constant": true,
      "inputs": [],
      "name": "totalSupply",
      "outputs": [
        {
          "internalType": "uint256",
          "name": "",
          "type": "uint256"
        }
      ],
      "payable": false,
      "stateMutability": "view",
      "type": "function"
    },
    {
      "constant": false,
      "inputs": [],
      "name": "NateCoin",
      "outputs": [],
      "payable": false,
      "stateMutability": "nonpayable",
      "type": "function"
    }
  ],
  "bytecode": "0x6080604052348015600f57600080fd5b5060a28061001e6000396000f3fe6080604052348015600f57600080fd5b506004361060325760003560e01c806318160ddd1460375780638e511098146053575b600080fd5b603d605b565b6040518082815260200191505060405180910390f35b60596061565b005b60005481565b620f424060008190555056fea265627a7a723158208def2a8e7ffc8e5819093d66cbcfe29e19ec920ea299cfd6c21bd0270350aceb64736f6c63430005100032",
  "source": "pragma solidity >=0.4.22 <0.8.0;\n\ncontract DappToken {\n    //Constructor \n    // Set tht total number of tokens\n    // Read the total number of tokens\n    uint256 public totalSupply;\n\n    function NateCoin() public {\n        totalSupply = 1000000;\n\n    }\n}\n",
  "sourcePath": "/Users/nvontz/token_sale/contracts/NateCoin.sol",
  "compiler": {
    "name": "solc",
    "version": "0.5.16+commit.9c3226ce.Emscripten.clang"
  },
  "schemaVersion": "3.2.3",
  "updatedAt": "2021-06-03T16:08:46.255Z",
  "devdoc": {
    "methods": {}
  },
  "userdoc": {
    "methods": {}
  }
}