{
  "contractName": "NateCoin",
  "abi": [
    {
      "inputs": [],
      "payable": false,
      "stateMutability": "nonpayable",
      "type": "constructor"
    },
    {
      "constant": true,
      "inputs": [],
      "name": "totalSupply",
      "outputs": [
        {
          "internalType": "uint256",
          "name": "",
          "type": "uint256"
        }
      ],
      "payable": false,
      "stateMutability": "view",
      "type": "function"
    }
  ],
  "bytecode": "0x6080604052348015600f57600080fd5b50620f42406000819055506084806100286000396000f3fe6080604052348015600f57600080fd5b506004361060285760003560e01c806318160ddd14602d575b600080fd5b60336049565b6040518082815260200191505060405180910390f35b6000548156fea265627a7a7231582023131b1fd002787197427ca0d11cee9f7608dcdbbe6036b09e93f37703e5c71164736f6c63430005100032",
  "source": "pragma solidity >=0.4.22 <0.8.0;\n\ncontract NateCoin {\n    //Constructor \n    // Set tht total number of tokens\n    // Read the total number of tokens\n    uint256 public totalSupply;\n\n    constructor() public {\n        totalSupply = 1000000;\n\n    }\n}\n",
  "sourcePath": "/Users/nvontz/token_sale/contracts/NateCoin.sol",
  "compiler": {
    "name": "solc",
    "version": "0.5.16+commit.9c3226ce.Emscripten.clang"
  },
  "schemaVersion": "3.2.3",
  "updatedAt": "2021-06-03T16:41:04.633Z",
  "devdoc": {
    "methods": {}
  },
  "userdoc": {
    "methods": {}
  }
}